:10000000B7C10000D5C10000D3C10000D1C10000BC
:10001000CFC10000CDC10000CBC10000C9C10000AC
:10002000C7C10000C5C10000C3C10000C1C10000BC
:10003000BFC10000BDC10000BBC10000B9C10000CC
:10004000B7C100005EC20000B3C10000B1C1000032
:10005000AFC10000ADC10000ABC10000A9C10000EC
:10006000A7C10000A5C10000A3C10000A1C10000FC
:100070009FC100009DC100009BC1000099C100000C
:1000800097C1000095C1000093C1000091C100001C
:100090008FC100008DC100008BC100000C94BE090F
:1000A00087C1000085C1000083C1000081C100003C
:1000B0007FC100007DC100007BC1000079C100004C
:1000C00077C1000075C1000073C1000071C100005C
:1000D0006FC100006DC100006BC1000069C100006C
:1000E00067C10000C40AC70AC70AC70AC70AC70A05
:1000F000C70AC70ADF09C70AC70AC70AC70AC70A61
:10010000C70AC70ADF09C70AC70AC70AC70AC70A50
:10011000C70AC70AE709C70AC70AC70AC70AC70A38
:10012000C70AC70A0C0AC70AC70AC70AC70AC70A02
:10013000C70AC70AE709C70AC70AC70AC70AC70A18
:10014000C70AC70A110AC70AC70AC70AC70AC70ADD
:10015000C70AC70A160AC70AC70AC70AC70AC70AC8
:10016000C70AC70A270AC70AC70AC70AC70AC70AA7
:10017000C70AC70A500AC70AC70AC70AC70AC70A6E
:10018000C70AC70A1B0AC70AC70AC70AC70AC70A93
:10019000C70AC70A350AC70AC70AC70AC70AC70A69
:1001A000C70AC70A520AC70AC70AC70AC70AC70A3C
:1001B000C70AC70A520AC70AC70AC70AC70AC70A2C
:1001C000C70AC70A520AC70AC70AC70AC70AC70A1C
:1001D000C70AC70A520AC70AC70AC70AC70AC70A0C
:1001E000C70AC70A5B0AC70AC70AC70AC70AC70AF3
:1001F000C70AC70A8B0AC70AC70AC70AC70AC70AB3
:10020000C70AC70A5B0AC70AC70AC70AC70AC70AD2
:10021000C70AC70A8B0AC70AC70AC70AC70AC70A92
:10022000C70AC70A730AC70AC70AC70AC70AC70A9A
:10023000C70AC70A8F0AC70AC70AC70AC70AC70A6E
:10024000C70AC70A8F0AC70AC70AC70AC70AC70A5E
:10025000C70AC70AA40AC70AC70AC70AC70AC70A39
:10026000C70AC70ABE0AC70AC70AC70AC70AC70A0F
:10027000C70AC70ABE0A00407A10F35A00A0724E9D
:1002800018090010A5D4E80000E87648170000E43B
:100290000B54020000CA9A3B000000E1F505000083
:1002A00080969800000040420F000000A0860100E8
:1002B0000000102700000000E803000000006400B8
:1002C000000000000A000000000001000000000023
:1002D0002C76D888DC674F0823DFC1DFAE59E1B147
:1002E000B796E5E3E453C63AE651997696E8E6C256
:1002F0008426EB898C9B62ED407C6FFCEFBC9C9F5D
:1003000040F2BAA56FA5F490055A2AF75C936B6C7E
:10031000F9676DC11BFCE0E40D47FEF520E6B50072
:10032000D0ED902E0300943577050080841E0800E0
:1003300000204E0A000000C80C333333330F986E90
:1003400012831141EF8D2114893BE65516CFFEE64D
:10035000DB18D1844B381BF77C1D901DA4BBE42413
:10036000203284725E228100C9F124ECA1E53D2790
:1003700011241FBECFEFD1E2DEBFCDBF00E00CBF26
:1003800013E0A0E0B2E0E6E6F5E200E00BBF02C059
:1003900007900D92AC39B107D9F72DE0ACE9B3E085
:1003A00001C01D92A53EB207E1F7A9D50C94B11288
:1003B00027CE1092C1031092C00310929E03109298
:1003C0009D033BC6089553C6089591E090939C0306
:1003D0008093BF0310929E0310929D0308950F9384
:1003E000082F21E040919D036FE973E08091BF03E6
:1003F00029D710929E0310929D0310929C030F9197
:100400000895CF93DF931F92CDB7DEB78983809194
:100410009C03882399F080919D038032A8F48091F9
:100420009E03E82FF0E0E156FC4F998190838F5FA7
:1004300080939E0380939D0381E007C061E0CE011D
:10044000019628D681E001C080E00F90DF91CF9126
:1004500008958F929F92AF92BF92EF920F931F9346
:10046000CF93DF93182FD62F49015A010023F1F0C3
:10047000ACDF043008F003E0CFEFC00F0023A1F0A1
:100480008C2F880F880F880FA501940104C0569502
:100490004795379527958A95D2F7DA01C901B1DFDB
:1004A0008C2FC1508111ECCF80E099DF4D2FD132DC
:1004B00008F040E22E2D62EC73E0812F53D61092AB
:1004C000C1038093C003DF91CF911F910F91EF90F3
:1004D000BF90AF909F908F9008959091C1038091AD
:1004E000C003981750F4E92FF0E0EE53FC4F208141
:1004F00030E09F5F9093C10302C02FEF3FEFC9012F
:1005000008951F920F920FB60F9211248F939F930D
:10051000AF93BF9381E08093E6038091E2039091D3
:10052000E303A091E403B091E5030196A11DB11D81
:100530008093E2039093E303A093E403B093E50375
:10054000BF91AF919F918F910F900FBE0F901F9011
:100550001895E1E0F1E0808180648083E2E0F1E0E1
:100560008081806480836B9A73989D9A279A14BCCB
:1005700015BC84B5806A84BD84B5836084BD85B5AF
:10058000846085BD18BC81EA87BD08951092800003
:10059000E1E8F0E0108210928500109284008CE96E
:1005A00090E09093890080938800808188608083A8
:1005B000808185608083EFE6F0E0808182608083C7
:1005C00010929000E1E9F0E01082109295001092F4
:1005D0009400808183608083089587E7F6DE82E45B
:1005E00010DF80E60EDF81E0FADE853031F480E056
:1005F00092E00E94170B80E0089581E008954F92E9
:100600005F926F927F928F929F92AF92BF92CF92A2
:10061000DF92EF92FF920F931F93CF93DF9300D05F
:100620001F92CDB7DEB75C0187E7CFDE82E4E9DE5B
:1006300081E0E7DE83E4E5DE81E0D1DE853029F488
:1006400084E292E0F4D780E066C0EE24E39400E018
:1006500020E030E0A9016CE087E7FBDE0F2EF3EF2E
:10066000CF2EF3E0DF2EF02D0F2EFFEF8F2EF3E0D5
:100670009F2EF02DCE0101967C0119821A821B82D9
:100680001C828E010B5F1F4F28DFF80182938F01C0
:10069000EE15FF05C9F749805A806B807C80C30145
:1006A000B2010E94F50B9B01772324F42227332704
:1006B000261B370BB901330F880B990B0E94280CAE
:1006C0002BED3FE049E450E40E94890B18164CF0F2
:1006D00077FA709477F87094F601408251826282C2
:1006E0007382F4E0CF0ED11CC814D90431F6F501A1
:1006F000EE0FFF1FEE0FFF1FEB5AF34F8091F70332
:100700009091F803A091F903B091FA03808391834B
:10071000A283B38381E00F900F900F900F90DF9131
:10072000CF911F910F91FF90EF90DF90CF90BF90EE
:10073000AF909F908F907F906F905F904F900895B3
:100740004F925F926F927F928F929F92AF92BF92E1
:10075000CF92DF92EF92FF920F931F93CF93DF938D
:1007600000D01F92CDB7DEB75C0187E72EDE82E4B2
:1007700048DE86E246DE83E444DE81E030DE85301A
:1007800029F482E592E053D780E056C0EE24E3944A
:1007900000E020E030E0A9016CE087E75ADE0F2E90
:1007A000F7EECF2EF3E0DF2EF02D0F2EF3EF8F2E8E
:1007B000F3E09F2EF02DCE0101967C0119821A8262
:1007C0001B821C828E010B5F1F4F87DEF801829314
:1007D0008F01EE15FF05C9F749805A806B807C8038
:1007E00020E030E040EA51E4C301B20192D718168C
:1007F0004CF077FA709477F87094F6014082518249
:1008000062827382F4E0CF0ED11CC814D904B1F611
:10081000F501EE0FFF1FEE0FFF1FEB53F54F809119
:10082000EB039091EC03A091ED03B091EE03808374
:100830009183A283B38381E00F900F900F900F906C
:10084000DF91CF911F910F91FF90EF90DF90CF90AC
:10085000BF90AF909F908F907F906F905F904F90E0
:100860000895CF92DF92EF92FF92CF93DF93EC0146
:100870002EEE3CE54DE852EC60910F0470911004AF
:1008800080911104909112040E94DC0C6B017C0198
:100890002CED36E44AE851E46091FF0370910004C6
:1008A00080910104909102040E94DC0C9B01AC0138
:1008B000C701B601CAD66B017C012BE334EA44E1DF
:1008C00054E46091F7037091F8038091F9039091DB
:1008D000FA030E94DC0C9B01AC01C701B601B5D63E
:1008E0006B017C0125E033EE4CEE52E46091EB03AA
:1008F0007091EC038091ED039091EE030E94DC0C6B
:100900009B01AC01C701B601A0D66B017C01F7FACF
:10091000F094F7F8F094CC0FDD1FCC0FDD1FCB5710
:10092000DB4FC882D982EA82FB8220E030E0A90155
:10093000C701B601EED6882314F4739A01C07398E8
:10094000C701B60152D79B01772324F4222733270E
:10095000261B370BB901330F880B990B79D76B0125
:100960007C0120E030E04AE852E4D3D6882344F00A
:100970000F2EC12CD12CFAE8EF2EF2E4FF2EF02D31
:1009800020E030E04AE852E4C701B601C6D620E0D4
:1009900030E04FE753E40E94DC0C2CD768BDDF91B8
:1009A000CF91FF90EF90DF90CF90089524E080E00A
:1009B00090E0DC014FEF4EBDBA2FA92F982F88276A
:1009C0000DB407FEFDCF3EB5832B2150A1F7072EB6
:1009D0007CE0B695A795979587957A95D1F7702D78
:1009E000BC01CD018770992708958BE084B98CB53F
:1009F00082608CBD8CB588658CBDD8DF60930704A0
:100A0000709308048093090490930A0408954F9208
:100A10005F926F927F92AF92BF92CF92DF92EF92EE
:100A2000FF920F931F93CF93DF93EC01A0900304E9
:100A3000B0900404B0920604A092050440900F0404
:100A40005090100460901104709012040091940072
:100A5000109195001093040400930304A7DF6093A2
:100A60000B0470930C0480930D0490930E04EED647
:100A700020E030E040E051E49FD72BED3FE049E437
:100A800050E49AD720E030E040E056E395D726E2E4
:100A900034EE4DEF50E4D8D56B017C01F7FAF094B9
:100AA000F7F8F094C0920F04D0921004E092110471
:100AB000F0921204A3019201C701B601C5D52B0122
:100AC0003C01B8016A197B0980E090E0BFD62DEBAC
:100AD00037E346E055E370D79B01AC01C301B20197
:100AE0001CD66093FF0370930004809301049093DD
:100AF00002049E01220F331F220F331FF901EB5E08
:100B0000F94FC082D182E282F382F901EB55F84FAE
:100B1000608371838283938320E030E040E45FEB65
:100B2000C701B60145D788236CF0C1E020E030E072
:100B300040E45FE3C701B601ECD518160CF4C0E041
:100B40008C2F01C080E0DF91CF911F910F91FF901A
:100B5000EF90DF90CF90BF90AF907F906F905F90BD
:100B60004F9008954F925F926F927F928F929F92D3
:100B7000AF92BF92CF92DF92EF92FF920F931F93AB
:100B8000CF93DF93CDB7DEB7A0970FB6F894DEBF53
:100B90000FBECDBFC0909400D0909500812C912CB9
:100BA000540100E010E00F2EF4E9EF2EF12CF02DAF
:100BB0008091E6038823E1F3C80121DD882309F44D
:100BC0004BC0C801BDDD882309F446C0C8011FDF42
:100BD00020E030E0A90160910F0470911004809131
:100BE00011049091120495D5882314F4739801C0D0
:100BF000739A80910F0490911004A0911104B09108
:100C00001204BC01CD019F7720E030E04FE753E4B0
:100C1000D3D62B013C0120E030E04CE852E479D5FA
:100C2000882324F4C301B201E5D501C066E4F701CD
:100C3000808191818C199D09880E991EA11CB11C7F
:100C4000C080D18068BD1092E6030F5F1F4F043F44
:100C5000F1E01F0709F0ACCF8EEB92E0DCD4BF923D
:100C6000AF929F928F928CED92E09F938F93CE01E3
:100C700001967C019F938F934BD7C701CCD480EE14
:100C800092E0C9D4C501B401E1D52DEB37E346E8C4
:100C900056E392D6870122E044E01BD7C701BBD4BC
:100CA00089EE92E0C4D418BC0FB6F894DEBF0FBE34
:100CB000CDBFA0960FB6F894DEBF0FBECDBFDF91BB
:100CC000CF911F910F91FF90EF90DF90CF90BF9049
:100CD000AF909F908F907F906F905F904F9008950E
:100CE0001092E2031092E3031092E4031092E503E2
:100CF00080E991E0E5E3F9E0DF019C011D922150DC
:100D00003040E1F7E5E5FCE0DF019C011D92215058
:100D10003040E1F7E5ECFAE0DF019C011D92215043
:100D20003040E1F7E5E1F6E0DF019C011D92215042
:100D30003040E1F7E5EAF7E0DF019C011D92215028
:100D40003040E1F7E5E8F4E0DF019C011D9221501D
:100D50003040E1F7089583EF92E069D440E951E033
:100D600060E070E085E399E041D481E093E05FD4F6
:100D700040E951E060E070E085E59CE037D48EE02A
:100D800093E055D440E951E060E070E085EC9AE0F2
:100D90002DD48EE193E04BD440E951E060E070E067
:100DA00085E196E023D48CE293E041D440E951E020
:100DB00060E070E085EA97E019D48DE393E037D4E2
:100DC00040E951E060E070E085E894E00FC40895E8
:100DD0008F929F92AF92BF92CF92DF92EF92FF924B
:100DE0000F931F93CF93DF938DE493E020D4992446
:100DF000939420E030E0A9016091FF03709100041A
:100E00008091010490910204D3D518160CF0912C16
:100E100020E030E0A90160910F04709110048091EE
:100E200011049091120475D4882314F4739801C0AE
:100E3000739A8AE588BDB12CC12C6894DD24D5F85D
:100E40000F2EF1E4EF2EF02D88248394A12C8091B5
:100E5000E6038823E1F30091FF0310910004D09191
:100E60000104C0910204F82C20E030E0A901602FB9
:100E7000712F8D2F9C2F9CD518160CF0FA2C9F10DB
:100E800020C02AE037ED43E25CE36B2D7C2D8D2DF5
:100E90009E2D3FD488235CF42AE037ED43E25CE3E7
:100EA000602F712F8D2F9C2F34D4882354F080E035
:100EB00090E0ADDDA092E603B02EC12EDD2EEC2E2B
:100EC000C6CF8BE593E0B3D34DDEE2E0F1E0808165
:100ED0008F7B808340DF87E778DA82EE92DA81E0E9
:100EE0007EDAF894DF91CF911F910F91FF90EF90F0
:100EF000DF90CF90BF90AF909F908F900895EF922A
:100F0000FF920F931F93CF93DF93CDB7DEB7A097D8
:100F10000FB6F894DEBF0FBECDBFE2DE60E970ED24
:100F200083E090E047D345DA60EE73E984E090E037
:100F30004ADA0FDB2BDB59DD789425E630E080912F
:100F4000E6038823E1F32150310919F01092E603FA
:100F5000F6CF43DB811102C03BDF60C01092E60395
:100F60001A821982FE0133968EE1DF011D928A9565
:100F7000E9F789E693E05BD3FE0131967F0110E04B
:100F80005BD3D7018D937D011F5F8A3011F0103242
:100F9000B9F7412F50E060E070E0CE01019626D312
:100FA000E1DD00E010E08091E6038823E1F3C80171
:100FB00026DB882391F1C801C3DB882371F1C801C6
:100FC00026DD882351F16091E2037091E303809163
:100FD000E4039091E5039801220F331F220F331F82
:100FE000F901EB5CF64F7F0133D42AE037ED43E2A1
:100FF0005CE3E2D4FAD3D7016D937D938D939C93F8
:101000001397C8012EDC1092E6030F5F1F4F0436C2
:1010100011054CF200E010E0C6CFDADE80E090E08F
:10102000A0960FB6F894DEBF0FBECDBFDF91CF9173
:101030001F910F91FF90EF900895ACEBB0E01C92E0
:101040001092840481E08093820410928104589A63
:10105000599AE9EBF0E080818E7F808380818D7FDB
:10106000808388E48093B80085E48C9308959B0185
:10107000AC0160E074E284EF90E001D5DA01C901CF
:101080004097A109B109B695A79597958795809343
:10109000B800089540913904262F30E0240F311D07
:1010A00021323105ECF4209184042430D9F46623F4
:1010B00081F0A82FB92F80E090E0309139042D9174
:1010C000FC01E55CFB4FE30FF11D208301968617C1
:1010D000A0F380913904680F6093390480E008958B
:1010E00081E0089582E0089585EC8093BC00109221
:1010F00084040895882349F0109213041092140474
:10110000109215041092160413C08091130490914C
:101110001404A0911504B09116040196A11DB11DEF
:101120008093130490931404A0931504B0931604B1
:101130008091130490911404A0911504B0911604A9
:10114000883E9340A105B10558F010921304109207
:10115000140410921504109216046FDF81E00895B4
:1011600080E00895FF920F931F93CF93DF93D82FC2
:10117000062F172FC42FF22E413208F05AC081E0FB
:10118000B9DF04C080E0B6DF811104C0809184041F
:101190008111F8CF81E080938404F09282049FEF64
:1011A0009093170410925C049C0F90935B048093BF
:1011B000830480918304DD0FD82BD0938304809126
:1011C0008104882381F010928104ABEBB0E0ECEB5A
:1011D000F0E0809183048C93808183FDFACF85ECCD
:1011E0008093BC0003C085EE8093BC0081E082DF69
:1011F00004C080E07FDF811104C0809184048130CD
:10120000C1F380915C048C1710F4C0915C04CC2372
:1012100091F0EDE5F4E0A02FB12F2FEF2C0F30E08F
:10122000225A3B4F91919D93E217F307D9F78C2FE8
:1012300003C080E001C080E0DF91CF911F910F914A
:10124000FF900895DF92EF92FF920F931F93CF9339
:10125000DF93413208F06AC0D22EC42F7B01182FD1
:1012600081E048DF04C080E045DF811161C0D0919A
:101270008404D111F8CF82E0809384040093820427
:101280008FEF8093170410925C04C0935B04CC230F
:1012900081F0F701ADE5B4E04FEF4C0F50E04F5F48
:1012A0005F4FB701640F751F81918D93E617F707A4
:1012B000D9F71092830480918304110F182B109397
:1012C000830480918104882381F010928104ABEB28
:1012D000B0E0ECEBF0E0809183048C93808183FD9F
:1012E000FACF85EC8093BC0003C085EE8093BC00F0
:1012F00081E000DFDD2061F080918404823041F4E0
:1013000080E0F8DE811116C0809184048230C1F340
:10131000809117048F3F99F080911704803261F01B
:1013200080911704803351F0D4E009C0D1E007C0A8
:10133000D5E005C0D5E003C0D2E001C0D3E08D2FD9
:10134000DF91CF911F910F91FF90EF90DF90089563
:10135000CF93DF9385ED8093BC0081E0CBDECCEBB7
:10136000D0E004C080E0C6DE811105C0888184FD24
:10137000F9CF10928404DF91CF9108951F920F92BC
:101380000FB60F9211240BB60F922F933F934F93EA
:101390005F936F937F938F939F93AF93BF93EF93DD
:1013A000FF938091B900887F90E0893C910508F017
:1013B000EEC0FC018827EE58FF4F8F4F82C380910B
:1013C00083048093BB0085EC8093BC00E0C09091C7
:1013D0005C0480915B04981780F4E0915C0481E0E8
:1013E0008E0F80935C04F0E0E35AFB4F8081809382
:1013F000BB0085EC8093BC00CAC080918204882326
:1014000011F0A6DFC4C081E08093810484EA809358
:10141000BC0010928404BBC080E28093170498DF64
:10142000B6C080E38093170493DFB1C088E3809354
:1014300017045ADEACC0E0915C0481E08E0F80930B
:101440005C048091BB00F0E0E35AFB4F80839091F5
:101450005C0480915B04981720F485EC8093BC00B9
:1014600096C085E88093BC0092C0E0915C0481E066
:101470008E0F80935C048091BB00F0E0E35AFB4F39
:10148000808380918204882311F062DF80C081E034
:101490008093810484EA8093BC001092840477C016
:1014A00057DF75C083E0809384041092180485ECA4
:1014B0008093BC006CC080911804803280F4E0916D
:1014C000180481E08E0F809318048091BB00F0E037
:1014D000E75EFB4F808385EC8093BC0058C085E8B5
:1014E0008093BC0054C000DE80911804803230F438
:1014F000E0911804F0E0E75EFB4F10826091180461
:1015000070E0E0917D04F0917E0489E194E019950A
:10151000109218043CC085E88093BC0038C084E079
:101520008093840410923A0410923904E0917F046D
:10153000F0918004199580913904811105C081E0F2
:101540008093390410923B04E0913A0481E08E0FBD
:1015500080933A04F0E0E55CFB4F80818093BB0010
:1015600090913A0480913904981720F485EC809387
:10157000BC000DC085E88093BC0009C085EC809359
:10158000BC001092840403C010921704E1DEFF91A6
:10159000EF91BF91AF919F918F917F916F915F91EB
:1015A0004F913F912F910F900BBE0F900FBE0F9058
:1015B0001F9018959B01AC0160E472E48FE090E00D
:1015C0005ED2215031093093C5002093C40088E1D8
:1015D0008093C1008EE08093C2000895E0ECF0E0BB
:1015E000908195FFFDCF8093C60008950F931F93C0
:1015F000CF93DF93EC018C01040F151F8017910727
:1016000029F08991EBDFC017D107D9F7DF91CF918E
:101610001F910F910895FC0101900020E9F7319787
:10162000AF01481B590B60E070E0E0CF0895F3DF95
:1016300088E993E0F0CF0895E0ECF0E08081882322
:10164000ECF78091C60008955058BB27AA270ED00A
:1016500075C166D130F06BD120F031F49F3F11F4A9
:101660001EF45BC10EF4E095E7FB51C1E92F77D181
:1016700080F3BA17620773078407950718F071F4AF
:101680009EF58FC10EF4E0950B2EBA2FA02D0B0105
:10169000B90190010C01CA01A0011124FF27591BB7
:1016A00099F0593F50F4503E68F11A16F040A22FBD
:1016B000232F342F4427585FF3CF4695379527952E
:1016C000A795F0405395C9F77EF41F16BA0B620B2D
:1016D000730B840BBAF09150A1F0FF0FBB1F661F74
:1016E000771F881FC2F70EC0BA0F621F731F841FB7
:1016F00048F4879577956795B795F7959E3F08F0DD
:10170000B3CF9395880F08F09927EE0F979587959B
:101710000895D9D008F481E008950CD00FC107D105
:1017200040F0FED030F021F45F3F19F0F0C05111CD
:1017300039C1F3C014D198F39923C9F35523B1F3F8
:10174000951B550BBB27AA2762177307840738F030
:101750009F5F5F4F220F331F441FAA1FA9F333D08F
:101760000E2E3AF0E0E830D091505040E695001C43
:10177000CAF729D0FE2F27D0660F771F881FBB1FFF
:10178000261737074807AB07B0E809F0BB0B802DD9
:10179000BF01FF2793585F4F2AF09E3F510568F025
:1017A000B6C000C15F3FECF3983EDCF386957795B9
:1017B0006795B795F7959F5FC9F7880F911D969527
:1017C000879597F90895E1E0660F771F881FBB1F83
:1017D000621773078407BA0720F0621B730B840B30
:1017E000BA0BEE1F88F7E095089504D06894B11104
:1017F000D9C00895BCD088F09F5790F0B92F992791
:10180000B751A0F0D1F0660F771F881F991F1AF00B
:10181000BA95C9F712C0B13081F0C3D0B1E00895D4
:10182000C0C0672F782F8827B85F39F0B93FCCF355
:10183000869577956795B395D9F73EF49095809501
:10184000709561957F4F8F4F9F4F0895E89409C021
:1018500097FB3EF490958095709561957F4F8F4FE3
:101860009F4F9923A9F0F92F96E9BB279395F695F9
:10187000879577956795B795F111F8CFFAF4BB0F77
:1018800011F460FF1BC06F5F7F4F8F4F9F4F16C0DB
:10189000882311F096E911C0772321F09EE8872F65
:1018A000762F05C0662371F096E8862F70E060E021
:1018B0002AF09A95660F771F881FDAF7880F96959A
:1018C000879597F90895990F0008550FAA0BE0E83E
:1018D000FEEF16161706E807F907C0F012161306F2
:1018E000E407F50798F0621B730B840B950B39F432
:1018F0000A2661F0232B242B252B21F408950A2698
:1019000009F4A140A6958FEF811D811D089597F9D7
:101910009F6780E870E060E008959FEF80EC089595
:1019200000240A94161617061806090608950024BE
:101930000A9412161306140605060895092E039438
:10194000000C11F4882352F0BB0F40F4BF2B11F4AC
:1019500060FF04C06F5F7F4F8F4F9F4F089557FD0B
:101960009058440F551F59F05F3F71F04795880F0D
:1019700097FB991F61F09F3F79F0879508951216A4
:1019800013061406551FF2CF4695F1DF08C0161650
:1019900017061806991FF1CF869571056105089401
:1019A0000895E894BB2766277727CB0197F9089518
:1019B0008ADF08F48FEF08950BD0C0CFB1DF28F095
:1019C000B6DF18F0952309F0A2CFA7CF1124EACFF4
:1019D000C6DFA0F3959FD1F3950F50E0551F629F8E
:1019E000F001729FBB27F00DB11D639FAA27F00D78
:1019F000B11DAA1F649F6627B00DA11D661F829F9F
:101A00002227B00DA11D621F739FB00DA11D621F83
:101A1000839FA00D611D221F749F3327A00D611DA0
:101A2000231F849F600D211D822F762F6A2F112482
:101A30009F5750408AF0E1F088234AF0EE0FFF1FD5
:101A4000BB1F661F771F881F91505040A9F79E3F0C
:101A5000510570F05CCFA6CF5F3FECF3983EDCF30E
:101A6000869577956795B795F795E7959F5FC1F749
:101A7000FE2B880F911D9695879597F90895A1E201
:101A80001A2EAA1BBB1BFD010DC0AA1FBB1FEE1FF8
:101A9000FF1FA217B307E407F50720F0A21BB30B43
:101AA000E40BF50B661F771F881F991F1A9469F7BF
:101AB00060957095809590959B01AC01BD01CF011B
:101AC0000895EE0FFF1F881F8BBF0790F691E02D42
:101AD0001994EF920F931F93CF93DF93E80147FD83
:101AE00002C034E001C034E1042E000C550B57FF56
:101AF00003C0519541955109E32E022F242FAE01C9
:101B000032D2CE01DF91CF911F910F91EF900895C6
:101B10000F931F93CF93DF93CDB7DEB72E970FB6FA
:101B2000F894DEBF0FBECDBF0E891F8986E08C837F
:101B30001A8309838FEF9FE79E838D83AE01465EF4
:101B40005F4F688D798DCE01019610D0EF81F885B9
:101B5000E00FF11F10822E960FB6F894DEBF0FBE75
:101B6000CDBFDF91CF911F910F9108952F923F929A
:101B70004F925F926F927F928F929F92AF92BF929D
:101B8000CF92DF92EF92FF920F931F93CF93DF9349
:101B9000CDB7DEB72B970FB6F894DEBF0FBECDBF23
:101BA0006C017B018A01FC0117821682838181FF0F
:101BB000BFC1CE0101963C01F6019381F70193FD6F
:101BC000859193FF81917F01882309F4ADC185320E
:101BD00039F493FD859193FF81917F01853221F442
:101BE000B60190E024D4E8CF912C212C312CFFE1D8
:101BF000F315D8F08B3279F038F4803279F08332F3
:101C0000A1F4232D20611DC08D3261F0803369F471
:101C1000232D216016C0832D8260382EE32DE460D1
:101C20003E2E2AC0F32DF8601DC037FC2DC020EDDC
:101C3000280F2A3040F08E32B9F436FC75C1232DBE
:101C40002064322E19C036FE06C08AE0989E200D10
:101C50001124922E11C0EAE02E9E200D1124222E76
:101C6000F32DF0623F2E08C08C3621F4832D80685E
:101C7000382E02C0883641F4F70193FD859193FF19
:101C800081917F018111B3CF982F9F7D955493301F
:101C900028F40C5F1F4F9FE399830DC0833631F00A
:101CA000833771F0833509F055C020C0F801808179
:101CB00089830E5F1F4F88248394912C530112C097
:101CC0002801F2E04F0E511CF801A080B18036FED1
:101CD00003C0692D70E002C06FEF7FEFC5019CD398
:101CE0004C018201F32DFF773F2E15C0280122E021
:101CF000420E511CF801A080B18036FE03C0692D50
:101D000070E002C06FEF7FEFC5017BD34C01F32D74
:101D1000F0683F2E820133FC19C0822D90E08816B6
:101D20009906A0F4B60180E290E081D32A94F5CF21
:101D3000F50137FC859137FE81915F01B60190E096
:101D400076D321102A9421E0821A910881149104FB
:101D500079F7E1C0843611F0893639F5F80137FE9C
:101D600007C060817181828193810C5F1F4F08C021
:101D700060817181072E000C880B990B0E5F1F4F3D
:101D8000F32DFF763F2E97FF09C0909580957095B3
:101D900061957F4F8F4F9F4FF0683F2E2AE030E0D4
:101DA000A30181D3882E861844C0853731F4232DB2
:101DB0002F7EB22E2AE030E025C0932D997FB92ED8
:101DC0008F36C1F018F4883579F0AEC0803719F03D
:101DD000883721F0A9C0E92FE061BE2EB4FE0DC006
:101DE000FB2DF460BF2E09C034FE0AC0292F2660E7
:101DF000B22E06C028E030E005C020E130E002C08D
:101E000020E132E0F801B7FE07C060817181828174
:101E100093810C5F1F4F06C06081718180E090E06C
:101E20000E5F1F4FA3013FD3882E8618FB2DFF772F
:101E30003F2E36FE0DC0232D2E7FA22E891458F47E
:101E400034FE0BC032FC09C0832D8E7EA82E05C047
:101E5000B82CA32C03C0B82C01C0B92CA4FE0FC011
:101E6000FE01E80DF11D8081803321F49A2D997EC9
:101E7000A92E09C0A2FE06C0B394B39404C08A2D53
:101E8000867809F0B394A3FC10C0A0FE06C0B2147B
:101E900080F4280C922C9B180DC0B21458F4B60193
:101EA00080E290E0C4D2B394F8CFB21418F42B18A7
:101EB00002C0982C212CA4FE0FC0B60180E390E054
:101EC000B6D2A2FE16C0A1FC03C088E790E002C013
:101ED00088E590E0B6010CC08A2D867851F0A1FE0D
:101EE00002C08BE201C080E2A7FC8DE2B60190E067
:101EF0009ED2891430F4B60180E390E098D29A948F
:101F0000F8CF8A94F301E80DF11D8081B60190E0CD
:101F10008ED28110F6CF222009F44ECEB60180E297
:101F200090E085D22A94F7CFF6018681978102C08E
:101F30008FEF9FEF2B960FB6F894DEBF0FBECDBF8D
:101F4000DF91CF911F910F91FF90EF90DF90CF9095
:101F5000BF90AF909F908F907F906F905F904F90C9
:101F60003F902F9008958F929F92AF92BF92CF9201
:101F7000DF92EF92FF920F931F93CF93DF93CDB732
:101F8000DEB729970FB6F894DEBF0FBECDBF6A014A
:101F9000122FB02E2BE3201720F0FF24F394F00E25
:101FA00002C02CE3F22E0F2D27E0AE014F5F5F4FF2
:101FB00050D1BC014981842F8970813031F0E1FC1E
:101FC00006C0E0FE06C090E205C09DE203C09BE2B1
:101FD00001C090E05E2D507143FF3CC0911102C0E2
:101FE00083E001C084E0811718F4212F281B01C071
:101FF00020E051110BC0F601822F30E2882319F046
:1020000031938150FBCFC20ED11C20E0992329F0DF
:10201000D6019C93F60131966F01C6010396E2FE4C
:102020000AC03EE4D6013C9341E411964C931197CB
:1020300012963C9306C03EE6F601308341E64183AA
:102040003283FC01322F40E2332309F442C0419332
:102050003150FACF42FF44C0911102C083E001C069
:1020600084E0811718F4212F281B01C020E05111B2
:102070000BC0F601822F30E2882319F03193815092
:10208000FBCFC20ED11C20E0992329F0D6019C93EE
:10209000F60131966F01C6010396E2FE0BC039E4EA
:1020A000D6013C933EE411963C93119736E4129688
:1020B0003C9307C039E6F60130833EE6318336E6CD
:1020C0003283FC01322F40E2332319F04193315027
:1020D000FBCFFC01E20FF11D10828EEF9FEFA6C037
:1020E00021E030E0911102C020E030E01616170622
:1020F0001CF4FB01319602C0E1E0F0E02E0F3F1F1F
:10210000BB2021F0EB2DF0E0319602C0E0E0F0E0E2
:102110002E0F3F1FE12FF0E02E173F071CF4121B7C
:10212000212F01C020E08E2D887159F4F601822FF5
:1021300030E2882319F031938150FBCFC20ED11CBD
:1021400020E0992329F0D6019C93F60131966F0186
:1021500051110BC0F601822F90E3882319F091935F
:102160008150FBCFC20ED11C20E00F2D060F9A81AB
:10217000342F307144FF03C0913309F4015010161D
:1021800024F4093018F008E001C001E0AB0177FF4A
:1021900002C040E050E0FB01E41BF50BA1E0B0E021
:1021A000AC0FBD1FEA0FFB1F8EE2A82E4B01801A59
:1021B00091080B2D10E01195019511094F3FBFEFCC
:1021C0005B0721F4D601AC9211966D016417750777
:1021D0002CF08416950614F4818101C080E34150EF
:1021E00051093196D60111967D014017510724F00F
:1021F000D6018C936701E2CF6417750739F49633E3
:1022000020F4953319F4311101C081E3F601808384
:10221000F701822F90E2882319F091938150FBCF30
:10222000F701E20FF11D108280E090E029960FB6D1
:10223000F894DEBF0FBECDBFDF91CF911F910F91FC
:10224000FF90EF90DF90CF90BF90AF909F908F90D6
:102250000895283008F027E03327DA01990F311D5F
:1022600087FD916000966105710539F432602E5F3B
:102270003D9330E32A95E1F708959F3F30F0803891
:102280007105610509F03C5F3C5F3D93913008F0BA
:102290008068911DDF93CF931F930F93FF92EF926E
:1022A000192F987F9695E92F96959695E90FFF2718
:1022B000E053FD4F99273327EE24FF24A701E701C0
:1022C00005900894079428F4360FE71EF81E491F5E
:1022D000511D660F771F881F991F0694A1F705905F
:1022E000079428F4E70EF81E491F561FC11D770FEB
:1022F000881F991F661F0694A1F70590079428F47C
:10230000F80E491F561FC71FD11D880F991F661F42
:10231000771F0694A1F70590079420F4490F561FE4
:10232000C71FD81F990F661F771F881F0694A9F72C
:1023300084911095177041F0D695C795579547959C
:10234000F794E7941A95C1F7E6E7F2E068941590E0
:10235000159135916591959105907FE27395E118FE
:10236000F10A430B560BC90BD009C0F7E10CF11E63
:10237000431F561FC91FD01D7EF4703311F48A9578
:10238000E6CFE894015030F0080F0AF40027021756
:1023900008F4202F2395022F7A3328F079E37D93D8
:1023A0002A95E9F710C07D932A9589F606949795AA
:1023B0006795379517951794E118F10A430B560B5B
:1023C000C90BD00998F023957E9173957A3308F064
:1023D00070E37C932013B8F77E9170617D9330F0A9
:1023E000839571E37D9370E32A95E1F71124EF90D3
:1023F000FF900F911F91CF91DF91992787FD9095C5
:102400000895FC010590615070400110D8F7809547
:1024100090958E0F9F1F0895FC01615070400190B0
:102420000110D8F7809590958E0F9F1F08950F93F8
:102430001F93CF93DF93FB01238121FD03C08FEF17
:102440009FEF2CC022FF16C0468157812481358121
:102450004217530744F4A081B1819D012F5F3F4F84
:10246000318320838C93268137812F5F3F4F3783C1
:10247000268314C08B01EC01FB010084F185E02D63
:102480001995892BE1F6D80116968D919C91179795
:10249000019617969C938E931697CE01DF91CF915C
:1024A0001F910F910895FA01AA27283051F1203188
:1024B00081F1E8946F936E7F6E5F7F4F8F4F9F4FD8
:1024C000AF4FB1E03ED0B4E03CD0670F781F891F1A
:1024D0009A1FA11D680F791F8A1F911DA11D6A0FE8
:1024E000711D811D911DA11D20D009F468943F919B
:1024F0002AE0269F11243019305D3193DEF6CF019A
:102500000895462F4770405D4193B3E00FD0C9F75F
:10251000F6CF462F4F70405D4A3318F0495D31FDCC
:102520004052419302D0A9F7EACFB4E0A69597951F
:10253000879577956795BA95C9F7009761057105F5
:1025400008959B01AC010A2E06945795479537953F
:102550002795BA95C9F7620F731F841F951FA01D99
:062560000895F894FFCF7E
:10256600494D555F696E69743A2049324320636F5D
:102576006D6D756E69636174696F6E2074696D65E2
:102586006F757400494D55526561645F65756C657C
:1025960072416E676C653A2049324320636F6D6DF8
:1025A600756E69636174696F6E2074696D656F75A8
:1025B6007400494D55526561645F65756C65725668
:1025C600656C6F6369746965733A204932432063A9
:1025D6006F6D6D756E69636174696F6E2074696D78
:1025E600656F757400636F6E74726F6C3A200009C4
:1025F600726F6C6C3A200009726F6C6C5F65727258
:102606006F723A200009707265635F6572726F724D
:102616003A2000656E63666C6F61743A20005469F7
:102626006D65207370656E7420696E2070726563C7
:10263600657373546F5A65726F3A2000256C750086
:10264600207469636B732C2000207365636F6E645E
:10265600732E000A74696D65724275666665723A14
:10266600000A494D55585F616E676C653A000A4924
:102676004D55585F76656C6F636974793A000A61E7
:102686006E676C654275666665723A000A76656CB9
:102696006F636974794275666665723A000A636F9C
:1026A6006E74726F6C4275666665723A0053687531
:1026B6007474696E6720646F776E00427265616B31
:1026C600696E6720646F6E6500506C656173652086
:1026D600656E74657220636F6D6D616E6400547211
:1026E600616E736D697373696F6E2074696D65646D
:0C26F600206F7574002564000D0A0000C0
:00000001FF
